:020000040800F2
:10000000880B002001010008DD3700086B2C000878
:1000100065370008DD0B0008CD4000080000000037
:100020000000000000000000000000007B3B000812
:10003000DF0B000800000000793B00087D3B000852
:100040001B0100081B0100081B0100081B01000820
:100050001B0100081B0100081B0100081B01000810
:100060001B0100081B010008E90B00081B01000828
:100070001B0100081B0100081B0100081B010008F0
:100080001B0100081B0100081B0100081B010008E0
:100090001B0100081B0100081B0100081B010008D0
:1000A0001B010008FD3B00081B0100081B010008A4
:1000B000093C00081B010008153C00081B01000852
:1000C0001B0100081B0100081B0100081B010008A0
:1000D0001B010008A9400008B5400008C140000805
:1000E000E10B00081B0100081B010008DFF80CD021
:1000F00000F0AAFC00480047ED600008880B0020D3
:100100000648804706480047FEE7FEE7FEE7FEE7B1
:10011000FEE7FEE7FEE7FEE7FEE7FEE7FB3B000843
:10012000ED0000082DE9F0410024061B254671F181
:10013000000605DA01240027D0EB070067EB010178
:10014000161E73F1000605DA0027D2EB070201251F
:1001500067EB030300F07AFB86460E4617469C4683
:10016000AC4204D00025D0EB050E65EB010624B1AE
:100170000020D2EB000760EB030C704631463A4694
:100180006346BDE8F081202A04DB203A21FA02F020
:100190000021704721FA02F3D040C2F120029140C1
:1001A000084319467047D2B201E000F8012B491EFE
:1001B000FBD270470022F6E710B513460A46044604
:1001C0001946FFF7F0FF204610BD421C10F8011B36
:1001D0000029FBD1801A704730B504460020034641
:1001E00000E05B1C934203D2E05CCD5C401BF8D086
:1001F00030BDF0B480EA0102D40F4200B2EB410FEF
:1002000002D20246084611464A0042D0C30DDDB272
:10021000C1F3C752AD1A202D35DAC1F3160141F4EE
:10022000000204B15242C5F1200602FA06F12A4149
:100230001044B3EBD05F23D0C4B1012DA0EBC35069
:1002400009DCF0BC4FF0004202EAC352DBB200F519
:10025000000000F056BB400000F1807000EBC3507E
:10026000A0F1807040EAD170490009E0490841EAF4
:10027000C071A0EBC35000F50000400800EBC35074
:10028000F0BC00F035BB6142012202EB4101001BD2
:10029000F6E7F0BC704781F00041AAE780F000402B
:1002A000A7E780EA010210B502F00043400022D027
:1002B0004A001FD0010E01EB1261C0F35600C2F3D9
:1002C000560240F4000042F40002A0FB02200004A9
:1002D0007F39140400D0401C50EA124001D4400081
:1002E000491EC2B20C0604EBD010401C4008802A04
:1002F00002D003E0002010BD20F00100002900DA48
:100300000020184310BD30B480EA010202F000451D
:1003100030F0004221F0004013D090B1C30DD40D55
:10032000C2F31601C0F31600E41A41F4000140F4D0
:1003300000027D34914201D3641C00E04900002C8E
:1003400002DA30BC002070474FF4000000239142D5
:1003500001D3891A034340084FEA4101F7D151B153
:10036000914202D14FF0004105E002D24FF001016D
:1003700001E06FF0010103EBC450284430BC00F0F1
:10038000B7BA420005D0C0F3C7525242914201DCD5
:100390000020704700EBC15070472DE9FE4F8046AA
:1003A00081EA0300C00F0C46009021F0004123F0C9
:1003B0000045B8EB0200A94105D2404621469046CF
:1003C0001C460B46024623F00040104347D0270D41
:1003D000C7F30A00C3F30A510290401A0190402863
:1003E0006BDAC3F3130040F4801B0098924620B1EF
:1003F0000023D2EB030A63EB0B0B01985946C0F1C3
:100400004002504600F053FA06460D465046594603
:10041000019A00F05BFA10EB08006141002487EAC2
:10042000115284EAE7731A4340D0009A62B3019AEA
:10043000012A4FEA075215DC001B61EB02014FF065
:10044000004202EA0752CDE90042001C41F580114A
:1004500032462B4600F092FA03B0BDE8F08F4046DA
:100460002146F9E7001B61EB0201001C41F58013F6
:1004700000185B412018A2F5001747EB030140EA82
:10048000D570B6196D4111E06D084FEA360645EAA0
:10049000C0754FEA0752001B61EB0201001C41F5D9
:1004A000801149084FEA30000019514132462B466D
:1004B00003B0BDE8F04F00F052BA009801224000AE
:1004C0000023D0EB020263EBE073009821464FEA71
:1004D000E074B8EB000061EB0401E9E783F000434E
:1004E0005BE781F0004158E72DE9FE4F81EA030404
:1004F00004F0004421F0004100944FF0000B23F081
:10050000004350EA01045ED052EA03045BD0C3F317
:100510000A54C1F30A552C44A4F2F3340194A0FB0D
:100520000254C1F3130141F48011C3F3130343F4E4
:10053000801301FB024400FB034E840A970A44EA3D
:10054000815447EA8357A4FB076802958D0A05FB8F
:1005500007854FEA932C04FB0C542705029D4FEAB4
:10056000065847EA1637B5EB08056EEB070C870E01
:10057000920E47EA811742EA8312A7FB0201B6EB0B
:100580000B0164EB00042B0D43EA0C335E1844EBC3
:100590001C50DA465146E7FB0201C5F313044FEA4B
:1005A0000B3343EA14534FEA0432019C43EA060337
:1005B000A4F10C040294009CCDE900B400F0DEF933
:1005C00003B0BDE8F08F00200146F9E72DE9F04DBA
:1005D00081EA030404F0004B21F0004514464FF07B
:1005E000000A23F0004150EA050220D054EA01023B
:1005F0001DD0C5F30A570246C5F31303C1F3130018
:10060000C1F30A5640F4801543F48013A7EB0608A3
:10061000101BD64608F2FD3873EB050002D308F133
:10062000010801E092185B41B8F1000F03DA0020E5
:100630000146BDE8F08D00204FF480110646844647
:100640000EE0171B73EB050705D3121B63EB0503C5
:1006500006434CEA010C49084FEA300092185B410E
:1006600050EA0107EDD152EA030012D082EA0400F9
:1006700083EA0501084305D0101BAB4106D20122D5
:10068000002306E000224FF0004302E06FF0010279
:1006900053101AEB06004CEB085110EB0A0041EB2B
:1006A0000B01BDE8F04D00F05AB970B521F00043E0
:1006B00003430CD0C1F30A550024D5EB040564EBC9
:1006C0000403D617AD1AB34102DB0020014670BD0A
:1006D000201841EB025170BDC10F80EAE070084460
:1006E000CA079623002100F00CB996230022114678
:1006F00000F007B90EB540F2334102910021CDE977
:1007000000110A460B4600F039F903B000BD00F0B5
:10071000004220F00040C10DC0F3160040F400007C
:100720007F2901DA00207047962903DCC1F1960188
:10073000C84001E096398840002AF4D04042704712
:1007400020F00040C10DC0F3160040F400007F29E6
:1007500001DA00207047962903DCC1F19601C840F8
:10076000704796398840704700F0004230F00040F2
:100770000AD0C10D01F56071C0F3160042EA0151C3
:10078000C20840071143704700200146704700002F
:1007900030B5041E71F1000404DB4FF00044404208
:1007A00064EB0101141E73F1000405DB1C464FF0DD
:1007B0000043524263EB0403994208BF904230BDAC
:1007C00001F0004330B421F0004150EA010206D0AC
:1007D0000A0DA2F56072C1F31301002A02DC30BCDD
:1007E00000207047440F44EAC104C100E01830BC47
:1007F00000EBC25000F07CB8002801DBC0F10040E3
:10080000002901DBC1F1004181427047002801DB72
:10081000C0F10040002901DBC1F10041884270476E
:1008200030B50B46014600202022012409E021FAC0
:1008300002F59D4205D303FA02F5491B04FA02F5BD
:100840002844151EA2F10102F1DC30BD2DE9F05F54
:100850000546002092469B4688460646814640242F
:100860001BE02846414647462246FFF78CFC53468C
:100870005A46C01A914110D311461846224600F03C
:1008800016F82D1A67EB01084F4622460120002179
:1008900000F00DF817EB00094E41201EA4F10104F1
:1008A000DFDC484631462A464346BDE8F09F202A11
:1008B00004DB203A00FA02F1002070479140C2F1B7
:1008C000200320FA03F3194390407047202A06DBE7
:1008D000CB17203A41FA02F043EAE07306E041FA0E
:1008E00002F3D040C2F120029140084319467047FC
:1008F0000029A8BF7047401C490008BF20F0010034
:10090000704710B4B0FA80FC00FA0CF050EA010411
:1009100004BF10BC704749B1CCF1200421FA04F4A3
:1009200011FA0CF118BF012121430843A3EB0C017C
:10093000CB1D4FEA00614FEA102042BF002010BCDF
:10094000704700EBC35010440029A4BF10BC70478F
:10095000401C490008BF20F0010010BC704710B5D2
:10096000141E73F1000408DA401C41F100019218D2
:100970005B411A4301D120F0010010BD2DE9F04D7B
:1009800092469B4611B1B1FA81F202E0B0FA80F2D0
:1009900020329046FFF78BFF04460F4640EA0A00DC
:1009A00041EA0B0153465A46084313D0114653EA15
:1009B000010019D0C8F140025046FFF7E4FB05469C
:1009C0000E46504659464246FFF771FF084305D090
:1009D000012004E020463946BDE8F08D00200543A3
:1009E00046EAE0762C4337430A986305E40AA0EB15
:1009F00008000022FD0A44EA47540A3002D50020CC
:100A00000146E9E7010510196941DDE908450019CA
:100A10006941BDE8F04DA2E7C1F30A52C1F31301E9
:100A200040F2FF3341F480119A4202DA002001467D
:100A3000704740F233439A42A2F2334202DC524200
:100A4000FFF7A1BBFFF733BF064C074D06E0E06898
:100A500040F0010394E8070098471034AC42F6D305
:100A6000FFF748FBE88C0008088D00082DE9F04DE1
:100A700000231A461B1A8A4103DB00200146BDE809
:100A8000F08DC1F30A52C1F3130141F480154FF008
:100A9000000BD10702D100186D41521E00270446F9
:100AA00040F2FF11384601EB620A3E46804602469C
:100AB00000204FF48011FFF766FBC2197141BB188B
:100AC00046EB0100B4EB030C75EB000C04D3E41A05
:100AD00065EB000517460E46241908F101006D412B
:100AE00080463428E3DDF91946EB0600091BA841CE
:100AF00003D24FF0FF32134601E0002213461BEBF6
:100B0000070046EB0A51BDE8F04DFFF728BF70B56E
:100B1000044600688168C943C90716D1816821F07D
:100B20000101816000F05CFC054609E000F058FC22
:100B3000401B022804D920688068C043C00706D043
:100B400020688068C043C007F0D0002070BDA06A54
:100B500040F01000A062E06A40F00100E062012075
:100B600070BD0000F8B50026044600960068816854
:100B7000C943C9072CD0816841F001018160154843
:100B800015490068B0FBF1F000E0401E009000281D
:100B9000FBD100F025FC054615E000F021FC401BD0
:100BA000022810D920688068C043C0070BD0A06A13
:100BB00040F01000A062E06A40F00100E06284F8BA
:100BC00024600120F8BD20688068C043C007E4D1DC
:100BD0000020F8BD5400002040420F00FEE770479F
:100BE0004FF4805000F0F8BA102000F0F5BA72B659
:100BF000FEE70000F8B50023009390F824201C467F
:100C0000012A12D0012280F824204A681F26072AD0
:100C10000DD205686F6B521E02EB82029640B743FD
:100C20000E68964037436F6319E00220F8BD0568EF
:100C30000D2A0AD22F6BD21F02EB82029640B743D5
:100C40000E68964037432F6309E0EF6A0D3A02EBD6
:100C500082029640B7430E6896403743EF620A68B7
:100C6000072605680A2A0AD3EF680A3A02EB42020D
:100C70009640B7438E6896403743EF6008E02F698F
:100C800002EB42029640B7438E68964037432F618D
:100C90000A68102A01D0112A20D1124D0268AA42F6
:100CA00017D195682D0219D4956845F40005956013
:100CB0000968102912D10C490C4A0968B1FBF2F1FC
:100CC00001EB8101490000E0491E00910029FBD1A0
:100CD00004E0816A41F020018162012380F8244010
:100CE0001846F8BD002401405400002040420F0087
:100CF0000068C06C704700002DE9F0414FF000061D
:100D0000040035467ED0A06A002728B9E76284F83F
:100D10002470204600F07EF82046FFF7F8FEA16A16
:100D200001F01001014304D0A06A40F01000A0625D
:100D300068E0A16A21F4885141F00201A162626871
:100D4000E169237B0A4346EA43010A43A1684FF461
:100D50008076B14208D0012906D0002194F814C051
:100D6000BCF1010F02D00AE03146F7E7F3B1A36A04
:100D700043F02003A362E36A43F00103E3622368C4
:100D8000D3F804C02CF4694C4CEA010CC3F804C03D
:100D900021688B68DFF870C003EA0C0313438B6093
:100DA000A168B1420BD0012909D00CE0DFF85CC08A
:100DB000A3690CEB43330B4343F40061DFE7218A63
:100DC0000D05A5F580152168CB6A23F470032B432C
:100DD000CB62216889680E4B1940914208D1E762C5
:100DE000A16A21F0020141F00101A162BDE8F08198
:100DF000A06A20F0020040F01000A062E06A40F01B
:100E00000100E0620120F1E7FDF7E1FF00E0FFFFF4
:100E1000FE0E1FFF00B585B00021009101910291E7
:100E2000039100680E49884218D10E48816941F447
:100E300080618161816901F480610491816941F07F
:100E4000040181618069694600F00400049010206B
:100E5000009003200190044800F0CAF905B000BDDD
:100E60000028014000100240000801402DE9F8432D
:100E70004FF000080D460446CDF8008000F0B0FAAF
:100E8000074620688168C90508D5A06A40F020009F
:100E9000A06284F824800120BDE8F8834168C90578
:100EA00003D4C06A10F4700F29D0022000F036FB82
:100EB0003A490968B1FBF0F620680169384A1142E5
:100EC0004FEA62024FEAA2131ED1C1684FEA621CC8
:100ED00011EA0C0F18D10169114224D1C0681842DF
:100EE00021D1142022E0681C09D025B100F078FA45
:100EF000C01BA84203D920680068800724D5206859
:100F000000688007EFD52CE00169114202D1C16869
:100F1000194206D0026923490A4206D1C068084234
:100F200003D1542002E0292000E0FC204643009831
:100F300015E0681C10D025B100F052FAC01BA84281
:100F40000AD90098B04207D2A06A40F00400A0621B
:100F500084F8248003209FE70098401C0090B04252
:100F6000E7D321686FF012000860A06A40F40070B7
:100F7000A06220688068C0F3424007280CD1207B23
:100F800050B9A06A20F48070A062A06AC00403D4A3
:100F9000A06A40F00100A06200207DE7540000201C
:100FA000244992244992240070B5044690F8240004
:100FB00001280DD0012084F824002046FFF7D2FD3F
:100FC00001004FF0000205D084F82420084670BDCF
:100FD000022070BDA06A40F20123984340F4807063
:100FE000A0621F4D20681F4BA84218D11E6816F43E
:100FF000702F14D0A66A46F48016A6621E68760585
:1010000005D5A66A26F4005646F48056A662A66A5E
:10101000F6040AD5E66A26F00606E66206E0A66A47
:1010200026F48016A6624668E9E7E26284F8242086
:101030006FF00202026020688268C2F34242072A0F
:1010400005D1A84208D11A6812F4702F04D0826822
:1010500042F480128260B9E7826842F4A002F9E7A4
:10106000002801400424014010B590F8211000220E
:10107000022905D00421816380F82020012010BDC1
:1010800001680B6823F00E030B6001680B6823F006
:1010900001030B6090F84030012404FA03F1C36BA4
:1010A000596080F8214080F82020104610BD0000D3
:1010B00010B590F821100024022903D00421816387
:1010C00001243DE001680A6822F00E020A6001680E
:1010D0000A6822F001020A601A4A0168914201D1AD
:1010E000012121E0174A1432914201D110211BE065
:1010F000144A2832914201D1891515E0114A3C3237
:10110000914201D189140FE00E4A5032914202D12E
:101110004FF4803108E00B4A6432914202D14FF41F
:10112000801101E04FF08071064A083A51600121B8
:1011300080F82110002180F82010416B01B1884710
:10114000204610BD0800024070B5044600F048F982
:101150000546601C02D004480078044400F040F9C1
:10116000401BA042FAD370BD480000202DE9F04199
:10117000154E164C4FF4005510280DD06F10B84284
:1011800020D10A20FFF7E0FF3946114800F016F998
:10119000002817D120700DE00A20FFF7D5FF10219D
:1011A0000C4800F00BF901280CD12278052A07D051
:1011B000521C227029463046BDE8F04100F003B9C8
:1011C0000120E7E7BDE8F0810010014003000020A6
:1011D00000080140000C0140044910B50A680242B1
:1011E00002D00860FFF7C2FF10BD000014040140E8
:1011F0002DE9F84FDFF8A491002409F1040A0AF15F
:10120000040B23464FF00F080BF1040EBEE001273C
:10121000A7403A40BA4272D1DFF884C14D68A5EBCD
:101220000C0665452BD00DDC032D34D005DC35B321
:10123000012D19D0022D2FD11BE0112D16D0122D0A
:101240002AD119E0B6F5881F19D006DCB6F5803F23
:1012500015D0B6F5801F1FD111E0B6F5001F0ED0D6
:10126000B6F5041F18D10AE0CB6815E0CB681B1D4A
:1012700012E0CB6808330FE0CB680C330CE08B68CE
:101280002BB1012B4FF0080303D0476104E0042386
:1012900002E0076100E00023FF2A01D8064601E0D2
:1012A00000F104064FEA840501D9A5F1200537684D
:1012B00008FA05FC27EA0C0703FA05F547EA0507D3
:1012C00037604D68ED0060D5364DAE6946F00106D9
:1012D000AE61AD6924F0030605F001050095324DBD
:1012E0007719BE68A5072D0F08FA05FC26EA0C063B
:1012F000DFF8B8C0604503D14FF0000C17E044E0C0
:10130000DFF8ACC0604502D14FF0010C0FE0DFF810
:10131000A4C0604502D14FF0020C08E0DFF898C08D
:10132000604502D14FF0030C01E04FF0040C0CFAC1
:1013300005FC4CEA060CC7F808C04D68D9F80060F7
:10134000ED034D4601D5164300E096432E604D68EF
:10135000DAF80060AD03554601D5164300E0964328
:101360002E604D68DBF80060ED025D4601D5164346
:1013700000E096432E604D68DEF80060AD027546D1
:1013800001D5164300E096432E60641C0A6832FAC9
:1013900004F57FF43CAFBDE8F88F00000004014085
:1013A0000000111000100240000001400008014040
:1013B000000C01400010014000140140806808400A
:1013C00000D001207047C26821EA02030A4043EAC4
:1013D0000241016170470AB1016170470904FBE7EE
:1013E000014880687047000048000020024881687A
:1013F000027811448160704748000020074810B50A
:10140000016841F010010160032000F075F801202F
:1014100000F006F800F024F8002010BD0020024083
:1014200070B50D4D04464FF47A712878B1FBF0F099
:101430000A490968B1FBF0F000F0C4FB48B9102C70
:1014400007D200222146501E00F036F800206C60C2
:1014500070BD012070BD0000480000205400002035
:101460000C4808B5816941F001018161816901F091
:1014700001010091C16941F08051C161C069064913
:1014800000F080500090486820F0E06040F000706C
:10149000486008BD0010024000000140002809DB40
:1014A00000F01F02012191404009800000F1E0207E
:1014B000C0F8001170470000F0B40E4B1B68C3F376
:1014C0000223C3F10704042C00D904241D1D072D99
:1014D00001D2002300E0DB1E012606FA04F56D1E92
:1014E0000D409D409E40761E164045EA0601F0BC28
:1014F00002F086BE0CED00E0064A00F0070110681D
:101500004FF6FF03184040EA0120034908431060EA
:10151000704700000CED00E00000FA0510B5014630
:1015200027A086B01DC88DE81D0029A0294C0068A1
:1015300004900020012922D0022939D010291CD181
:1015400061682268D20118D5C1F38342C9031DF82E
:10155000020009D5616804AAC1F34041515C1E4AEA
:10156000B2FBF1F1484301E01C494843616849027C
:1015700003D440000321B0FBF1F006B010BD216A96
:10158000C1F30122012A03D1890701D5D003F4E771
:10159000022A05D1616A890702D549F64040ECE785
:1015A000032AEAD121688903E7D54FF22440E4E712
:1015B00000F036F96168C1F38131491C4900DAE76E
:1015C00002030405060708090A0B0C0D0E0F101084
:1015D000010200000010024000127A0000093D00E4
:1015E0002DE9F84304460078344FC00752D0F8691B
:1015F0000025C00008D4F86940F08050F861F8690F
:10160000012500F0805000902D480168C90511D4D3
:101610000168804641F480710160FFF7E1FE0646F3
:1016200004E0FFF7DDFE801B642822D8D8F8000014
:10163000C005F6D5386A10F4407020D0A18801F4B6
:10164000407181421BD0386A1E49012220F440704B
:101650000A6000220A603862C00710D0FFF7C0FE9F
:10166000064641F2883807E0FFF7BAFE811B414584
:1016700002D90320BDE8F883386A8007F4D5386AB8
:10168000616820F44070084338621DB1F86920F0A9
:101690008050F8612078800705D57868A16820F42B
:1016A0004040084378602078C00605D57868E16836
:1016B00020F48000084378600020DBE7001002403F
:1016C00000700040400442422DE9F0470D460400FE
:1016D00067D0DFF81881D8F8000000F00700A842B2
:1016E0000CD2D8F8001021F007012943C8F80010E7
:1016F000D8F8000000F00700A84252D120683C4E04
:10170000810712D5400703D5706840F4E06070602F
:101710002078000703D5706840F4605070607068EE
:10172000A16820F0F000084370602078C00727D03F
:101730006068012810D03168022810D0890700297C
:101740002FDA716821F0030101437160FFF748FE51
:10175000074641F288390CE031688903EFE78901D7
:10176000EDE7FFF73DFEC11B494502D90320BDE867
:10177000F0877068616800F00C00B0EB810FF0D169
:10178000D8F80010404601F00701A9420BD90168C2
:1017900021F0070129430160006800F00700A8421A
:1017A00001D00120E3E72078400705D57068E168A3
:1017B00020F4E060084370602078000706D5706868
:1017C000216920F4605040EAC100706000F038F8F0
:1017D0007168084AC1F30311515CC84006490860AA
:1017E00006480068FFF71CFE0020C0E7002002400A
:1017F000001002402C770008540000204C0000200C
:101800000448054900684968044AC1F30221515C53
:10181000C840704754000020001002403C77000888
:101820000448054900684968044AC1F3C221515C73
:10183000C840704754000020001002403C77000868
:1018400012A085B00FC88DE80F0014A0144B0068DB
:1018500004905968134801F00C02042A10D0082A99
:101860000ED1C1F38342C9031DF802000AD559689D
:1018700004AAC1F34041515C0A4A5043B0FBF1F065
:1018800005B0704708494843FAE700000203040521
:10189000060708090A0B0C0D0E0F101001020000BC
:1018A0000010024000127A0000093D002DE9F84FB7
:1018B00004006FD02078BE4DC00747D06868C0F3E1
:1018C0008100012807D06868C0F38100022809D18F
:1018D0006868C00306D52868800337D5606800288B
:1018E000E7D033E06068B0F5803F0BD010B1B0F5C1
:1018F000A02F11D0286820F480302860286820F4B8
:10190000802002E0286840F480302860606888B158
:10191000FFF766FD064609E0286840F4802028604D
:10192000F0E7FFF75DFD801B642873D8286880030B
:10193000F7D50BE0FFF754FD064604E0FFF750FD36
:10194000801B6428F1D828688003F7D42078DFF85A
:10195000648280074FF0010A4FF0000939D56868AA
:1019600010F00C0F07D06868C0F38100022809D17D
:101970006868C00306D42868800714D52069012848
:1019800008D110E02069B0B1C8F800A0FFF728FD29
:10199000064605E007E1FFF723FD801B0228C4D8B7
:1019A00028688007F7D52868616920F0F80040EAC8
:1019B000C10028600DE0C8F80090FFF711FD064651
:1019C00004E0FFF70DFD801B022823D8286880075C
:1019D000F7D4207800072CD57748A169D9B1C0F891
:1019E00000A0FFF7FDFC064604E0FFF7F9FC801BB2
:1019F00002280FD8686A8007F7D570484FF4FA516B
:101A00000068B0FBF1F0009000BF0098411E00910B
:101A1000FAD20EE07CE0C0F80090FFF7E1FC064649
:101A200004E0FFF7DDFC801B022871D8686A80079C
:101A3000F7D4207840075BD5E8690027C00008D4B8
:101A4000E86940F08050E861E869012700F08050C3
:101A500000905B480168C90511D40168834641F4D0
:101A600080710160FFF7BCFC064604E0FFF7B8FC9C
:101A7000801B64284CD8DBF80000C005F6D5E06870
:101A800001280AD008B1052813D0286A20F00100E7
:101A90002862286A20F0040002E0286A40F0010071
:101AA0002862E06841F2883B88B1FFF799FC06465E
:101AB00009E0286A40F004002862EEE7FFF790FC96
:101AC000811B59455BD8286A8007F7D50BE0FFF7E3
:101AD00087FC064604E0FFF783FC811B59454ED87E
:101AE000286A8007F7D41FB1E86920F08050E861C8
:101AF000E069A8B36968C1F38101022946D00228D0
:101B0000484606D0C8F86000FFF76AFC044639E092
:101B100035E04746C8F86000FFF762FC064604E07F
:101B2000FFF75EFC801B022829D828688001F7D4C3
:101B3000206AB0F5803F05D16868A16820F40030C4
:101B400008436860D4E908010843696821F4741106
:101B500008436860C7F860A0FFF742FC044605E050
:101B600023E0FFF73DFC001B022808D8286880010D
:101B7000F7D51AE0FFF734FC001B022802D9032036
:101B8000BDE8F88F28688001F4D40EE00128F7D072
:101B90006868226A00F48031914204D1616A00F4DD
:101BA0007010884201D00120EAE70020E8E7000039
:101BB00000100240000042428004424254000020D3
:101BC0000070004010B5401EB0F1807F01D30120AD
:101BD00010BD4FF0E02460610F21601702F010FB90
:101BE0000020A06107202061002010BD70477047D1
:101BF00010B590F83C20012A22D0012280F83C2028
:101C0000CA688C6822F4407222434C6822F48062D5
:101C100022430C6822F4006222430C6922F48052B1
:101C200022434C6922F400522243C969002322F462
:101C300080420A4301684A6480F83C30002010BDAD
:101C4000022010BD70B590F83C20012A26D0012555
:101C500080F83C50022280F83D2002685368946866
:101C600023F070060B68334353600D4B02689A42B1
:101C700008D0B2F1804F05D00A4B9A4202D00A4BED
:101C80009A4204D1496824F080031943916080F896
:101C90003D50002180F83C10084670BD022070BD08
:101CA000002C0140000400400008004010B5040072
:101CB00003D094F83D0010B107E0012010BD0020D2
:101CC00084F83C00204600F01FF8022084F83D0014
:101CD000211D206801F0A4FF012084F8460084F84B
:101CE0003E0084F83F0084F8400084F8410084F806
:101CF000420084F8430084F8440084F8450084F8E6
:101D00003D00002010BD000008B500680B49884266
:101D100012D10B48816941F4006181618069002220
:101D200000F40060009011461920FFF7C5FBBDE8E4
:101D300008401920FFF7B2BB08BD0000002C01408D
:101D40000010024090F83D10012901D00120704799
:101D5000022180F83D100168CA6842F00102CA60A1
:101D600000680B49884208D0B0F1804F05D009497E
:101D7000884202D00849884204D1816801F00701F5
:101D8000062903D0016841F001010160002070477D
:101D9000002C0140000400400008004070B50446DB
:101DA00090F83C00012817D0012584F83C5002200F
:101DB00084F83D002068826822F0770222F47F4296
:101DC00082600868502830D00DDC20284DD005DC1A
:101DD00098B310283BD148E0022070BD302844D091
:101DE000402834D139E0602828D0702806D0B0F5DA
:101DF000805F2CD0B0F5005F29D10AE0CB68D1E933
:101E00000121206801F04FFF2068816841F07701CF
:101E100009E0CB68D1E90121206801F044FF206886
:101E2000816841F48041816011E0CA684968206896
:101E300001F0F4FF5021206807E016E0CA68496805
:101E4000206801F0FCFF6021206801F036FF84F873
:101E50003D50002084F83C0070BDCA684968206885
:101E600001F0DCFF40212068EFE7226801461046C0
:101E7000EBE72DE9F0410D46040003D094F83D0056
:101E800018B108E00120BDE8F081002084F83C0092
:101E9000204600F041F8022084F83D002068816867
:101EA00044F2070291438160211D206801F0B8FED1
:101EB000206881688269066A2B68AF690B4340F22B
:101EC00003318A4342EA0722A968EF6911434FF6BA
:101ED000FC429143EA6841EA07210A4329692F6AD3
:101EE000090141EA073111436A686D6926F022064B
:101EF00046EA05152A4383602068816154F8460B41
:101F00000262012004F81F09E0752076E076207750
:101F1000A0750020B7E7000000B585B00021009152
:101F2000019102910391016823480122B1F1804F90
:101F300023D0224B99421ED1C16941F00401C161F5
:101F4000C16901F004010491816941F008018161D6
:101F50008069694600F008000490C0200090029259
:101F60001748FFF745F9002211461E20FFF7A4FA93
:101F70001E20FFF793FA05B000BDC16941F00101D1
:101F8000C161C16901F001010491816941F004015D
:101F900081618069694600F004000490032000908C
:101FA00002920848FFF724F9002211461C20FFF78F
:101FB00083FA1C20DDE7000000100240000800400A
:101FC000000C01400008014070B590F83E500446F6
:101FD00090F83F3090F8422090F84300022621B15B
:101FE00004290BD0012D16D10FE0012D13D1012AA8
:101FF00011D184F83E6084F8426016E0012B0AD1CA
:10200000012808D184F83F600DE0012B03D1012A9B
:1020100001D1012801D0012070BD84F83E6084F810
:102020003F6084F8426084F8436091B1042904D091
:1020300001220021206801F029FE012204212068EC
:1020400001F024FE2068016841F0010101600020D8
:1020500070BD012200212068F2E7704770B5044688
:10206000006801694FF00005C943890715D4C168AC
:10207000C943890711D4E91E016101202077206836
:1020800080698007204602D0FFF7E7FF04E000F0F8
:10209000BFF8204600F04EF9257720680169C94352
:1020A000490717D4C168C943490713D46FF0040125
:1020B0000161022020772068806910F4407F20466B
:1020C00002D0FFF7CAFF04E000F0A2F8204600F0BB
:1020D00031F9257720680169C943090716D4C16819
:1020E000C943090712D46FF0080101610420207769
:1020F0002068C0698007204602D0FFF7AEFF04E0E9
:1021000000F086F8204600F015F92577206801696F
:10211000C943C90617D4C168C943C90613D46FF0AF
:1021200010010161082020772068C06910F4407F09
:10213000204602D0FFF791FF04E000F069F8204646
:1021400000F0F8F8257720680169C943C90708D16C
:10215000C168C943C90704D1891E0161204600F046
:102160003BF920680169C943090609D4C168C9431C
:10217000090605D46FF0800101612046FFF736FDA6
:1021800020680169C943490609D4C168C9434906A1
:1021900005D46FF040010161204600F0D1F92068BC
:1021A0000169C94389060BD4C168C943890607D4AC
:1021B0006FF0200101612046BDE87040FFF717BDB8
:1021C00070BD000000B585B0002100910191029121
:1021D000039100680B49884212D10B48816941F094
:1021E000040181618069694600F0040004904FF4A5
:1021F000106000900220019003900448FEF7F8FF61
:1022000005B000BD002C0140001002400008014054
:10221000704770B5044690F83C000D4601280AD07E
:10222000012084F83C0042B1042A18D0082A2AD0A0
:102230000C2A4DD139E0022070BD206801F046FD26
:102240002068816941F0080181612068816921F07D
:1022500004018161206881692A69114311E02068C5
:1022600001F060FD2068816941F4006181612068AE
:10227000816921F480618161206881692A6941EA6C
:102280000221816124E0206801F07AFD2068C169A3
:1022900041F00801C1612068C16921F00401C161F8
:1022A0002068C1692A69114311E0206801F094FD9A
:1022B0002068C16941F40061C1612068C16921F4ED
:1022C0008061C1612068C1692A6941EA0221C16156
:1022D000002084F83C0070BD10B5040003D094F8D1
:1022E0003D0010B107E0012010BD002084F83C0043
:1022F000204600F01EF8022084F83D00211D2068D1
:1023000001F08EFC012084F8460084F83E0084F839
:102310003F0084F8400084F8410084F8420084F8CB
:10232000430084F8440084F8450084F83D00002010
:1023300010BD70477047000010B5044649B104292C
:102340000AD008290BD094F8410001280AD00120B6
:1023500010BD94F83E00F8E794F83F00F5E794F8D4
:102360004000F2E7022041B3042929D008292AD0ED
:1023700084F841000122206801F088FC134920689C
:10238000884203D1426C42F4004242642068884291
:1023900008D0B0F1804F05D00D49884202D00D49D8
:1023A000884204D1816801F00701062903D0016841
:1023B00041F001010160002010BD84F83E00D9E722
:1023C00084F83F00D6E784F84000D3E7002C0140B2
:1023D00000040040000800402DE9F84F4B498842B6
:1023E0007DD14B4CA088401C85B20520B5FBF0F197
:1023F00000FB11512046A580006900270090D9BB41
:1024000044480068416A444A494209B2218013683D
:102410005B6A1EB266804762106847620846FEF734
:102420005BF9DFF8F8804146FDF73BFFDFF8F090FD
:102430004946FDF768FFDFF8ECB05946FDF763FF4A
:102440006FF0010A5146FDF79CFF0099FDF729FF47
:10245000A0603046FEF740F94146FDF722FF4946AD
:10246000FDF751FF5946FDF74EFF5146FDF789FF35
:102470000099FDF716FFE0600A20B5FBF0F100FBC4
:10248000115000283FD10098FEF76EF90546A0686C
:102490000E4680F00040FEF767F9234A234BFEF713
:1024A00023F80022224BFEF71FF82A463346FEF798
:1024B0008DF805460E466069FEF756F92A46334602
:1024C000FDF76BFFFEF77CF960611A48E16801F0E7
:1024D000DFFAFEF71CF905461748A16800E012E094
:1024E00001F0D6FAFEF713F9294601F03DF9134839
:1024F0000078012806D1E08841F28831884201D273
:10250000401CE080A780BDE8F88F0000300100206B
:1025100030000020C0010020780100200000C842E7
:102520000000A041000030417B14AE47E17A943FA7
:1025300000803140F4020020D4020020020000207C
:102540007047704770470000F8B50268044610688D
:10255000D168536910F00F0F4FF0000554D003F00D
:10256000010601F4907737435FD0C20705D0CA0552
:1025700003D5226C42F001022264420705D5DA0736
:1025800003D0226C42F002022264820705D5DA07EA
:1025900003D0226C42F004022264020707D501F046
:1025A0002002324303D0226C42F008022264226CE3
:1025B000002A35D0800604D5880602D5204601F0D1
:1025C00070FC20684069216CC0F3801001F00801A4
:1025D0000143204625D001F04CFC206841694906A2
:1025E0001BD5416921F040014161A06BA8B1584958
:1025F0004163A06BFEF75CFD002811D0A06B416B1E
:1026000001B0BDE8F040084783060ED58B060CD517
:102610002046BDE8F84001F044BC2046FFF792FF99
:10262000F8BDFFF78FFF2564F8BD266B2023012E30
:1026300052D1C60650D5CE064ED5106850680090CF
:10264000506940062AD5A16B086840680004000C58
:10265000EAD0A68D8642E7D9E0858869202818D07F
:10266000D06820F48070D0602068416921F00101B9
:1026700041612068416921F04001416184F83E30A8
:1026800025632068C16821F01001C160A06BFEF7CE
:10269000EBFCA08DE18D401A81B219E0A08DE18D97
:1026A000401A81B2E08D0028BED00029BCD0D0688D
:1026B00020F49070D0602068426922F001024261EB
:1026C00084F83E3025632068C26822F01002C260A0
:1026D0002046FFF736FFF8BD05062BD50D0629D598
:1026E00094F83D002128F6D1A068B0F5805F01D1B3
:1026F0002069B0B1206A411C2162216800784860DD
:10270000E08C401E0004000CE084E4D12068C16825
:1027100021F08001C1602068C16841F04001C160C2
:10272000F8BD206A0088C0F308005060206A801C51
:102730002062E5E74006F3D54806F1D5D16820468A
:1027400021F04001D16084F83D3000F0FFF9F8BD80
:10275000633E000870B5040004D094F83D000025E5
:1027600010B106E0012070BD84F83C50204600F016
:1027700023F8242084F83D002068C16821F400512A
:10278000C160204601F0E8FB2068016921F4904116
:1027900001612068416921F02A0141612068C16816
:1027A00041F40051C1602564202084F83D0084F884
:1027B0003E00002070BD0000F0B585B000240094FC
:1027C00001940294039444490068424F0222032377
:1027D000424D0E15B84225D1886940F48040886189
:1027E000886900F480400490886940F004008861A2
:1027F0008869039300F0040004904815CDE90002B5
:1028000069462846FEF7F4FCCDE90064694628468F
:102810000294FEF7EDFC002211462520FEF74CFE47
:10282000252028E02E4FB84229D1C86940F4003055
:10283000C861C86900F400300490886940F0040061
:1028400088618869694600F0040004900420CDE99D
:10285000000203932846FEF7CBFC0820CDE90004D4
:10286000694628460294FEF7C3FC00221146262042
:10287000FEF722FE2620FEF711FE05B0F0BD194D31
:10288000A842FAD1C86940F48020C861C86900F440
:1028900080200490886940F0080088618869124DA2
:1028A00000F00800CDE90330CDE900626946284612
:1028B000FEF79EFCE814CDE9000469462846029420
:1028C000FEF796FC002211462720FEF7F5FD272093
:1028D000D1E700000038014000100240000801402C
:1028E0000044004000480040000C014090F83E3099
:1028F000202B0ED159B152B190F83C30012B08D0A9
:10290000012380F83C300023036301F081BB0120E8
:1029100070470220704700002DE9F04705465548F2
:102920000126554C4FF000084FF07E594FF0804A79
:10293000854263D1514F3878412803D148464946F2
:1029400003F034FE3878422803D14D48014603F0A5
:102950002DFE3878432803D10021084603F026FED7
:102960003878442803D15146484603F01FFE387892
:10297000452803D14946504603F018FE38784628CA
:1029800001D103F049FE3878472801D103F032FE27
:1029900038783C493C4F48280CD0492811D04A2867
:1029A00017D04C281CD052281CD05A281DD04B2898
:1029B0001DD01EE0354A386890421ADCFDF719FC3C
:1029C00005E0334A3868904213D8FDF764FC38605C
:1029D0000FE02078072801D0401C04E0267008E0B2
:1029E0000A2000E00B20207003E00C20FBE784F8B5
:1029F0000080012221491F48FFF778FF25488542C2
:102A000036D1254D2878432803D10021084603F00C
:102A1000CDFD2878442803D15146484603F0C6FD31
:102A20002878452803D14946504603F0BFFD287851
:102A3000462801D103F0F0FD2878472801D103F0A2
:102A4000D9FD28784A2802D04B2808D009E0207800
:102A5000072802D0401C207003E0267001E084F8B3
:102A60000080BDE8F04701220B490A48FFF73EBF4E
:102A7000BDE8F08790020020030000200400002041
:102A8000000080BF0000B442540300200000344323
:102A9000000034C308020020060000202DE9F8439E
:102AA000044690F83D001F4615460E4620284BD19F
:102AB000C6B1BDB194F83C00012845D0012084F88E
:102AC0003C004FF00008C4F84080212084F83D000D
:102AD000FEF786FCA5848146E584A068B0F5805F9A
:102AE00003D004E00120BDE8F883206920B1354619
:102AF000002684F83C800EE00025FAE7802120467D
:102B000001F0A1FAA0B9ADB115F8010B2168486038
:102B1000E08C401EE084E08C4B464FF000020097B2
:102B20000028EBD14FF04001204601F08CFA30B183
:102B30000320D8E736F8020BC0F30800E6E72020B0
:102B400084F83D000020CEE70220CCE7704700006B
:102B5000064908B50968064AC908B1FBF2F14143C4
:102B6000009100BF491E0091FBD208BD5400002017
:102B700040420F0070B5204D00240122202128463C
:102B8000FEF729FC0F20FFF7E3FF00222021284653
:102B9000FEF721FC194D1A4E07E00120641CFFF7D7
:102BA000D7FFAC4201D9174870BD40213046FEF72F
:102BB00005FC0028F1D0002408E00120641CFFF788
:102BC000C7FFAC4202D94FF0404070BD40213046B3
:102BD000FEF7F4FB0128F0D06000FDF78BFD0A4AF8
:102BE0000A4BFDF781FC4FF0FF32FDF75EFDBDE8BB
:102BF0007040FDF7E5BD0000000C0140A08601001B
:102C000000080140000080BF4C37894160E5A03FCB
:102C10002DE9F0410C46054617464FF0FF311046AE
:102C2000FDF7AFFB064621682868FDF734FB314607
:102C3000FDF7ECFD04D239462068FDF7DAFA11E021
:102C40004FF03F413846FDF72CFB064621682868C7
:102C5000FDF721FB3146FDF7CFFD04D23946206850
:102C6000FDF719FB2060BDE8F081FEE72DE9F0419A
:102C700001220C4DD40321462846FEF7ACFB01226D
:102C8000094F160331463846FEF7A5FB00223146B0
:102C90003846FEF7A0FB21462846BDE8F041002259
:102CA000FEF799BB00080140000C014070B50122FD
:102CB000D1030948FEF78FFB084D4FF480540022E2
:102CC00021462846FEF787FB21462846BDE870408E
:102CD0000122FEF780BB000000080140000C01400B
:102CE00070B50122064DD40321462846FEF773FB3A
:102CF00021462846BDE870400022FEF76CBB00006C
:102D0000000801402DE9FF41294CE06AFDF72CFD48
:102D100007468846A06AFDF727FD05460E46606A0D
:102D2000FDF722FD8DE8E00102460B4621A129486E
:102D300001F03EFA2748FDF748FA82B24FF6FF73DA
:102D400024492548FFF7AAFE194A2C32111F081FF3
:102D500003F0A2FC0028F7D1154920482C3100F0DF
:102D6000C1FE4FF07F5706463946E060FDF741FA55
:102D70000546206131463846FDF78DFA1849194B52
:102D8000002260618D4201DD216102E09D4200D39D
:102D90002261884201DD616102E0984200D36261F4
:102DA000D4E9040104B0BDE8F04103F0FFBB00002A
:102DB0000000002070697463683A252E3266207224
:102DC0006F6C6C3A252E3266207961773A252E3267
:102DD000660D0A00CE00002090020020540300205F
:102DE000000060400000808070B5FDF775FC194D53
:102DF000E96AFDF7FEF9184C4FF07C562060FFF7AA
:102E000081FF2068FDF7B0FC02460B4613A117486E
:102E100001F0CEF90C23154A0121002000F0C8FD75
:102E2000E86AFDF7A1FC02460B4611A10F4801F02C
:102E3000BFF90C230D4A0221002000F0B9FD2068E3
:102E4000E96AFDF728FAB042D9DAB0F13F4FD6D29D
:102E5000012070BD000000205403002074617267DF
:102E600065743A252E3266200D0A00009C00002071
:102E700061637475616C3A252E326620200D0A005C
:102E800070B5144D4FF48074002221462846FEF799
:102E9000A2FA2A1D106820F0F0001060106840F0BF
:102EA00030001060002261002846FEF794FA0220EC
:102EB00004F004FB012221462846FEF78CFA02208A
:102EC00004F0FCFA21462846BDE870400022FEF7D7
:102ED00082BA0000000C01407047000070B5144D2C
:102EE0004FF48074002221462846FEF774FA2A1D0A
:102EF000106820F0F0001060106840F030001060A2
:102F0000012251022846FEF766FA022004F0D6FAA2
:102F1000012221462846FEF75EFA022004F0CEFA8E
:102F200021462846BDE870400022FEF754BA000052
:102F3000000C01402DE9F04780461B480024016841
:102F400021F0F0010160016841F080010160861507
:102F50002546071F4FF40079002231463846FEF718
:102F60003AFA022004F0AAFA012231463846FEF766
:102F700032FA6006040E49463846FEF71FFA08B1D9
:102F8000641CE4B2022004F099FA6D1CEDB2082D25
:102F9000E2D3B8F1000F04D0FFF772FF2046BDE87E
:102FA000F087FFF79BFFF9E7040C01402DE9F041A2
:102FB00005461A48016821F0F0010160016841F0FE
:102FC000300101608615071F002231463846FEF7A2
:102FD00002FA00244FF40078280601D5012200E00F
:102FE000002241463846FEF7F6F96806050E012232
:102FF00031463846FEF7EFF9022004F05FFA00226E
:1030000031463846FEF7E7F9022004F057FA641C0F
:10301000E4B2082CE0D3BDE8F0810000040C0140CC
:1030200070B51448016821F0F0010160016841F0B9
:10303000300101604415051F012221462846FEF794
:10304000CAF90122160231462846FEF7C4F90220C9
:1030500004F034FA002221462846FEF7BCF902208B
:1030600004F02CFA31462846BDE870400022FEF7F5
:10307000B2B90000040C014070B51448016821F099
:10308000F0010160016841F0300101608415051F05
:10309000002221462846FEF79EF9660000223146AE
:1030A0002846FEF798F9022004F008FA012221468A
:1030B0002846FEF790F9012231462846FEF78BF9A3
:1030C000BDE87040022004F0F9B90000040C014092
:1030D0002DE9F04119480024016821F0F001016058
:1030E000016841F0800101604615051F012231464B
:1030F0002846FEF770F9022004F0E0F901221702D9
:1031000039462846FEF767F9022004F0D7F908E0AF
:10311000641CE4B2FA2C04D9FFF7AEFF0120BDE82D
:10312000F08131462846FEF749F90028F0D1002207
:1031300039462846FEF74FF90020F0E7040C01401D
:1031400010B5FFF7C9FE80216B2000F0BFF86420A6
:10315000FDF7FAFF00216B2000F0B8F8032000F023
:1031600081F8002000F079F8322000F098F8002172
:10317000382000F0ABF800216A2000F0A7F8002109
:10318000232000F0A3F88021372000F09FF875205D
:1031900000F011F8682801D0012010BD01216B203A
:1031A00000F094F800216C2000F090F8322000F03C
:1031B00076F8002010BD10B50446FFF731FFD0208F
:1031C000FFF7F4FEFFF784FF2046FFF7EFFEFFF75F
:1031D0007FFFFFF725FFD120FFF7E8FEFFF778FF1D
:1031E0000020FFF7A7FE0446FFF746FF204610BD6C
:1031F0002DE9F0411C4615460F460646FFF710FF25
:103200007006000EFFF7D2FEFFF762FF20B1FFF756
:1032100033FF0120BDE8F0813846FFF7C7FEFFF716
:1032200057FFFFF7FDFE012000EB4600C0B2FFF79D
:10323000BDFEFFF74DFF08E0012D0CD00120FFF788
:1032400079FE6D1E04F8010BEDB2002DF4D1FFF7ED
:1032500013FF0020DEE70020F1E7C006010E1C206E
:1032600000F034B8C006010E1B2000F02FB8BC28B7
:1032700001D3012110E0622801D302210CE02A28A9
:1032800001D3032108E0142801D3042104E00A2813
:1032900001D3052100E006211A2000F017B810B56F
:1032A00004464FF47A70844201D9044602E0042CAB
:1032B00000D20424B0FBF4F0401EC1B2192000F08B
:1032C00005F86008BDE81040FFF7D1BF70B50C46A7
:1032D0000546FFF7A5FED020FFF768FEFFF7F8FED2
:1032E00050B92846FFF762FEFFF7F2FE2046FFF7CF
:1032F0005DFEFFF7EDFE18B1FFF7BEFE012070BDC9
:10330000FFF7BAFE002070BD2DE9F0411D461646BC
:103310000C460746FFF784FE7806000EFFF746FED0
:10332000FFF7D6FE60B92046FFF740FEFFF7D0FE5C
:1033300000240CE0285DFFF739FEFFF7C9FE20B13D
:10334000FFF79AFE0120BDE8F081641CE4B2B442AC
:10335000F0D3FFF791FE0020F5E700003EB5002115
:103360001148009101910F4A02910260816001733E
:10337000017501244FF460220461C2614160FDF7D0
:10338000BBFC08B1FDF733FC0420CDE900040220AA
:10339000029069460448FDF72DFC002801D0FDF796
:1033A00026FC3EBD00280140000100202DE9F04729
:1033B00086B000244E4800940194029403948169DD
:1033C00041F010018161816901F01001049181696E
:1033D00041F020018161816901F02001049181693E
:1033E00041F004018161816901F004010491816966
:1033F00041F00801816180693E4F00F008004FF400
:1034000000550490002229463846FDF7E4FFDFF816
:10341000E8A001224FF498515046FDF7DCFF00224E
:1034200042F228015046FDF7D6FFDFF8D0904FF466
:103430000048012241464846FDF7CDFF009502268F
:1034400001250396CDE9015469463846FDF7D0FEC3
:10345000E020CDE90004694648460294FDF7C8FE25
:103460000320CDE90004694650460294FDF7C0FEF2
:103470002F03CDE90075CDE9025669465046FDF7A8
:10348000B7FE42F22830CDE90005CDE90246694693
:103490005046FDF7ADFE1A480097CDE90105694693
:1034A0004846FDF7A5FECDE90085CDE902566946FF
:1034B0004846FDF79DFE102000901248CDE9010618
:1034C00069465046FDF794FE002202210A20FDF7CE
:1034D000F3FF0A20FDF7E2FF002202212820FDF77A
:1034E000EBFF2820FDF7DAFF06B0BDE8F08700000B
:1034F0000010024000100140000C01400008014093
:10350000000021100000111010B596B000240F9497
:1035100010941194129413941C2168461494FCF78F
:1035200049FE202107A8FCF745FE2D482B490160E4
:1035300040F29F51C0E901146321C0E903148021C6
:10354000C0E90541FEF7B2FB08B1FDF750FB4FF4AF
:1035500080500F900FA92248FEF720FC08B1FDF71C
:1035600046FB1F48FEF7B8FE08B1FDF740FB139479
:1035700013A91B481494FEF765FB08B1FDF737FB50
:10358000602000903220CDE9010403940494059456
:103590000022694612480694FEF73BFE08B1FDF78B
:1035A00026FB0C2269460E48FEF733FE08B1FDF7F4
:1035B0001EFB0794089409944FF400500A94CDE937
:1035C0000B4007A906480E94FEF712FB08B1FDF761
:1035D0000EFB0348FEF7F6FD16B010BD002C0140AF
:1035E0003001002010B58CB024216846FCF7E2FDC4
:1035F0000024164809944FF080410A94C0E9001451
:103600004FF6FF71C0E90241046184610320CDE9F6
:1036100000040120CDE9020406210491CDE9054012
:10362000CDE9074169460948FEF723FC08B1FDF7DB
:10363000DEFA099409A905480A94FEF703FB00285D
:1036400001D0FDF7D4FA0CB010BD000078010020C5
:1036500010B58CB024216846FCF7ACFD0024164858
:10366000099414490A94C0E900144FF6FF71C0E9A7
:103670000241046184610320CDE900040120CDE909
:10368000020406210491CDE90540CDE907416946D0
:103690000948FEF7EEFB08B1FDF7A9FA099409A95C
:1036A00005480A94FEF7CEFA002801D0FDF79FFAEC
:1036B0000CB010BD00080040C00100200C4810B53F
:1036C0000A4901604FF4E1314160002181600C2220
:1036D000C160C0E904128161C161FFF73BF80028B5
:1036E00003D0BDE81040FDF782BA10BD003801409C
:1036F000080200200C4810B50A4901604FF4E1317E
:103700004160002181600C22C160C0E90412816126
:10371000C161FFF71FF8002803D0BDE81040FDF796
:1037200066BA10BD004400404C0200200C4810B5A1
:103730000A4901604FF4E1314160002181600C22AF
:10374000C160C0E904128161C161FFF703F800287C
:1037500003D0BDE81040FDF74ABA10BD0048004054
:1037600090020020FEE7000070B51A4E4542C1F1FC
:10377000000401D5012200E0002208213046FDF7B7
:103780002AFE4FF40051002C01DA012200E0002251
:103790003046FDF720FE10486FF06201002D05DA7B
:1037A0008D4200DA0D466435026803E0632D00DDCA
:1037B000632502685563002C05DA8C4200DA0C465A
:1037C0000068643403E0632C00DD63240068046453
:1037D00070BD0000000C014030010020FEE770B514
:1037E0000025002105F1B00000F0FDF80021084699
:1037F00000F0F9F80021102000F0F5F80024012174
:10380000002000F0F0F8641CE4B2802CF7D36D1CAB
:10381000EDB2082DE5D370BD10B54FF44870FDF73B
:1038200093FC0021AE2000F0DEF80021084600F0F5
:10383000DAF80021102000F0D6F80021402000F036
:10384000D2F80021B02000F0CEF80021812000F055
:10385000CAF80021FF2000F0C6F80021A12000F0E6
:10386000C2F80021A62000F0BEF80021A82000F038
:10387000BAF800213F2000F0B6F80021C82000F07F
:10388000B2F80021D32000F0AEF80021084600F085
:10389000AAF80021D52000F0A6F80021802000F031
:1038A000A2F80021D82000F09EF80021052000F0A9
:1038B0009AF80021D92000F096F80021F12000F0BC
:1038C00092F80021DA2000F08EF80021122000F09A
:1038D0008AF80021DB2000F086F80021302000F07B
:1038E00082F800218D2000F07EF80021142000F0E5
:1038F0007AF80021BDE81040AF2000F074B810B590
:103900000A460446002102F1B00000F06CF81020D5
:1039100040EA1410002100F066F804F00F00BDE842
:103920001040002100F05FB82DE9F041203A00245A
:103930000F468046D5B27F2803D900208F1C8046D1
:10394000FFB2102B394610D0FFF7D9FF164905EB0F
:10395000450001EB40050121285D00F044F8641C9E
:10396000E4B2062CF7D3BDE8F081FFF7C8FF0F4E95
:1039700004EB05100121305C00F035F8641CE4B262
:10398000082CF5D37F1CF9B24046FFF7B8FF00249E
:1039900004EB051030440121007A00F024F8641C87
:1039A000E4B2082CF4D3DEE7447700086C79000811
:1039B0002DE9F041984617460E46044600250DE0D5
:1039C000434631462046FFF7AFFF0834E4B2782C77
:1039D00002D90024B61CF6B26D1CEDB27A5D002A45
:1039E000EED1BDE8F081C0B209B100F0BABB00F081
:1039F000A1BB00001D4900201D4B48600860886085
:103A0000C860C1E904034FF07E52C1E906202031AD
:103A1000486008608860C860C1E90403C1E9062005
:103A20002031144A486008608860C860C1E9040217
:103A3000114AC1E906022031104AC1E9002088601C
:103A40004FF03F42C860C1E904020D4AC1E90620B7
:103A500020310C4AC1E9002088600B4AC860C1E9E6
:103A6000040288610948C86170470000D402002040
:103A7000000070410000C0BF6666C63F0000B44150
:103A80006F1283BA000034430AD7A33CCDCCCC3D9F
:103A90002DE9F04104460068FCF7FDFB0546A060F7
:103AA00029462069FCF7A5FB206107462846E16806
:103AB000FCF7F1FBE169FCF7F4FB06463946A06927
:103AC000FCF7EFFB074629466069FCF7EAFB39463D
:103AD000FCF78FFB3146FCF78CFBE5606060BDE8CE
:103AE000F08100002DE9F0410D46044600F02EF86B
:103AF000154A29462046FFF78BF829682068FCF70D
:103B0000CAFB0546A06029462069FCF772FB2061CC
:103B100007462846E168FCF7BEFBE169FCF7C1FBFC
:103B200006463946A069FCF7BCFB07462946606992
:103B3000FCF7B7FB3946FCF75CFB3146FCF759FB59
:103B4000E5606060BDE8F0810000B44370B50446F4
:103B5000074E084D00682946884202DDFCF79BFBB2
:103B600003E0B04203D3FCF744FB2060F3E770BDF1
:103B7000000080800000B44370477047FDF736BCFA
:103B800030B593B028216846FCF714FB14210AA82D
:103B9000FCF710FB002401210F9410940804CDE9D8
:103BA000001011941294029402250491CDE907505B
:103BB0004FF4E01009906846FDF778FE08B172B640
:103BC000FEE70F20CDE90A054FF48060CDE90C40F7
:103BD00002210AA80E94FDF777FD08B172B6FEE740
:103BE0004FF4004011900F950FA8FDF7F9FC002845
:103BF00001D072B6FEE713B030BD70470148FEF742
:103C00002DBA0000300100200148FEF727BA00005D
:103C1000780100200148FEF721BA0000C001002011
:103C2000F0B50268164C174D174E4FF08047A04272
:103C300005D0B84203D0A84201D0B04203D122F04F
:103C400070034A681A43A04205D0B84203D0A84284
:103C500001D0B04203D122F44073CA681A434B69C1
:103C600022F080021A4302608A68C2620A68826295
:103C7000A04201D10969016301214161F0BD000049
:103C8000002C0140000400400008004010B501F085
:103C90001F010123046A8B409C430462036A8A402B
:103CA0001343036210BD10B5846842EA032224F472
:103CB0007F440A432243826010BD826822F0700272
:103CC0000A4342F0070181607047000030B5026A84
:103CD00022F001020262036A4268846924F07305DB
:103CE0000C682C4323F002058B682B430C4DA84233
:103CF00006D123F00805CB6843EA050323F004034B
:103D000007D14D6922F4407245EA02058A6942EA08
:103D100005024260846149684163036230BD00006E
:103D2000002C014030B5026A22F010020262026AE1
:103D3000436884690D6824F4E64444EA05248D68E8
:103D400022F0200242EA05120C4DA84206D1CD68AD
:103D500022F0800242EA051222F0400207D14D69AA
:103D600023F4406343EA85038D6943EA8503436096
:103D7000846149688163026230BD0000002C01400B
:103D800030B5026A22F480720262036A4268C46932
:103D900023F4007324F073050C682C438D6843EA08
:103DA00005230C4DA84206D1CD6823F4006343EAF5
:103DB000052323F4806307D14D6922F4405242EA7F
:103DC00005128D6942EA05124260C4614968C16307
:103DD000036230BD002C014030B5026A22F48052EB
:103DE0000262036A4268C4690D6824F4E64444EA46
:103DF00005248D6823F4005343EA0533064DA84299
:103E000004D14D6922F4804242EA85124260C461C5
:103E100049680164036230BD002C014010B5046A9A
:103E2000036A23F001030362836923F0F00343EA8A
:103E3000021324F00A020A438361026210BD10B526
:103E4000036A23F0100303628469036A24F4704454
:103E500044EA023223F0A00343EA011182610162C5
:103E600010BD10B5406A0021C185C184FEF76AFB10
:103E700010BD0168CA6822F49072CA6001684A697C
:103E800022F001024A61016B012904D10168CA686C
:103E900022F01002CA60202180F83E100021016348
:103EA000704708B590F83E10222901D0022008BDC5
:103EB00081684FF48053994201D1026922B1826A2C
:103EC00099421BD049B10AE00268816A5268C2F384
:103ED00008020A80816A891C08E0016971B10168E1
:103EE000496801F07F011170816A491C8162C18DAE
:103EF000491E0904090CC18503D019E0016849680D
:103F0000F1E70168CA6822F02002CA600168CA6845
:103F100022F48072CA6001684A6922F001024A6193
:103F2000202180F83E10016B012903D0FEF7F4FC3C
:103F3000002008BD002101630168CA6822F0100258
:103F4000CA6001680A68D20602D50A684968009109
:103F5000818DFEF7F6FAEBE770B50446006801695B
:103F6000E26821F4405111430161A16820690143D5
:103F7000606901432068C26841F20C639A430A43B6
:103F8000C26020684169A26921F440711143416116
:103F90001E492068884202D1FDF742FC01E0FDF78E
:103FA0002FFC00EBC00101EB00116068642280006F
:103FB000B1FBF0F3B3FBF2F36FF018067343B1FB00
:103FC000F0F5B1FBF0F605EB8305322303EB0515A5
:103FD000B5FBF2F5B6FBF2F605F0F00505EB0615BC
:103FE000B1FBF0F6B1FBF0F0B0FBF2F06FF01801AE
:103FF000484306EB800003EB0010B0FBF2F02168B1
:1040000000F00F002844886070BD000000380140B7
:1040100081628285C28500210164222280F83E20CF
:1040200080F83C100168CA6842F48072CA60016876
:104030004A6942F001024A610068C16841F020010A
:10404000C160002070472DE9F0411E4617468846A2
:104050000446069D1CE0681C1AD025B1FDF7C0F986
:10406000801BA84214D92068C16821F4D071C160B6
:104070002068416921F001014161202084F83D0060
:1040800084F83E00002084F83C000320BDE8F08165
:104090002068016838EA010004D00020B842DAD074
:1040A0000020F3E70120F9E70148FEF74DBA0000D0
:1040B000080200200148FEF747BA00004C02002029
:1040C0000148FEF741BA000090020020FEE7000020
:1040D0002DE9F047154F04464FF4004600223146C3
:1040E0003846FDF778F9DFF8489000254FF48058FE
:1040F00004F08000802816D0002241464846FDF793
:104100006AF96006040E012231463846FDF763F96C
:10411000002231463846FDF75EF96D1CEDB2082DE0
:10412000E6D3BDE8F0870122E7E700000008014080
:10413000000C014010B50446FEF798FD7820FFF70B
:10414000C7FFFEF7CDFD0020FFF7C2FFFEF7C8FD59
:104150002046FFF7BDFFFEF7C3FDBDE81040FEF7A8
:10416000A5BD10B50446FEF781FD7820FFF7B0FF2E
:10417000FEF7B6FD4020FFF7ABFFFEF7B1FD20468E
:10418000FFF7A6FFFEF7ACFDBDE81040FEF78EBDC1
:104190000FB4054B10B503A9044A029800F070F95A
:1041A00010BC5DF814FB0000D55B000894000020F3
:1041B0000FB4084B10B504A902AA039800F060F9E7
:1041C000044602A9002000F0F2FC204610BC5DF875
:1041D00014FB0000AF4B0008490050EAC12018BF93
:1041E00004204A0D18BF40F0010040F2FF72B2EB0C
:1041F000515F08BF40F00200012808BF052070474A
:104200000907090E002804DB00F1E02080F8001403
:10421000704700F00F0000F1E02080F8141D704797
:104220002DE9F0414F1E00EBC7010446D1E9000122
:1042300015461E4637F006020DD02A463346FCF7D7
:1042400053F97F1E04EBC703D3E90023FCF7A5F85D
:1042500037F00602F1D1022F25D0042F13D0062FFC
:1042600018BFBDE8F0812A463346FCF73DF9D4E992
:104270000A23FCF792F82A463346FCF735F9D4E9CD
:104280000823FCF78AF82A463346FCF72DF9D4E9CF
:104290000623FCF782F82A463346FCF725F9D4E9D1
:1042A0000423FCF77AF82A463346FCF71DF9D4E9D3
:1042B0000223FCF772F82A463346FCF715F9D4E9D5
:1042C0000023BDE8F041FCF768B80122FCF7EDB926
:1042D000FCF763B80022134610461146FCF776B986
:1042E000024A00201107FCF7E0B9000001FDFFFFC2
:1042F00002E008C8121F08C1002AFAD170477047AF
:10430000002001E001C1121F002AFBD1704700000C
:104310000149086070470000980000202DE9FF5F08
:10432000DDE90220010DDDF838B0024318D044F673
:104330001050A1F2FF3141430D140F98012820D0F5
:10434000A5EB0B00401C5FEA000A4FF00004474E4B
:10435000DFF81C91A046504616D5CAF1000728E0A8
:104360000F98012443A2012808D0002100980F9B38
:10437000C0E90021C0E90243BDE8FF9F6FEA0B01DD
:10438000F4E7CBF10000DEE7074612E0F80707D0BC
:104390002246334640464946FCF7A6F88046894601
:1043A0002246334610461946FCF79EF804460E4650
:1043B0007F10002FEAD1DDE90201BAF1000F424679
:1043C0004B4602DAFCF790F801E0FCF7FFF80446F0
:1043D0000E460022284BFCF7DBF903D84FF0FF30E4
:1043E000014607E00022254B20463146FBF7D5FF6A
:1043F000FCF712FB102409E0002C0ADB0A22002340
:10440000FCF724FA019B30321A55641E50EA01026F
:10441000F2D1641C019AC4F1110314440F9A012AC9
:1044200003D0012208430DD10AE0084304D0002044
:104430004FF0110B0F9080E7A3EB0B056D1E0DE005
:104440005B4504DD4FF0000205F1010504E003DAED
:104450004FF00002A5F10105002AECD000980F9959
:10446000C0E90231C0E9004586E7000000002440B1
:104470000000F03F300000000000F0430000E03F8B
:104480002DE9FF4F95B09B468946064600250FE271
:10449000252877D100242746F84A0121059400E019
:1044A000044316F8013F203B01FA03F01042F7D114
:1044B00030782A2811D06FF02F033078A0F1300225
:1044C000092A16D8059A44F0020402EB820203EB93
:1044D00042021044761C0590EFE759F8042B059230
:1044E000002A03DA504244F40054059044F00204D8
:1044F000761C30782E2816D116F8010F44F00404EB
:104500002A280DD06FF02F023078A0F13003092B4C
:1045100009D807EB870302EB4303C718761CF3E7C0
:1045200059F8047B761C30786C280FD006DC4C28B8
:1045300017D068280DD06A2814D104E0742810D050
:104540007A280FD10DE044F400140AE044F48014FA
:1045500001E044F440147278824202D104F58014E0
:10456000761C761C307866280BD013DC582877D060
:1045700009DC002875D04528F6D04628F4D0472815
:104580001AD19DE118E0632835D0642879D06528D8
:1045900012D195E1702873D008DC6728F1D0692822
:1045A0006FD06E280DD06F2806D1B5E073282CD0BF
:1045B000752875D0782874D05A46179990476D1C85
:1045C00075E1C4F30250022809D003280DD0D9F8B0
:1045D000001004280DD00D6009F1040967E1D9F835
:1045E0000010EA17C1E90052F6E7D9F800100D8073
:1045F000F2E70D70F0E719F8041B8DF800100020A9
:104600008DF80100EA46012003E059F804AB4FF0B1
:10461000FF3061074FF0000102D40DE008F1010105
:104620008846B9420FDA8045F8DB1AF808100029ED
:10463000F4D108E008F1010188468142FADB1AF85A
:1046400008100029F6D105985B46A0EB0807214623
:104650003846179A00F094FA284400EB080507E062
:104660004DE029E10DE01AF8010B5A4617999047E1
:10467000B8F10108F7D25B4621463846179A13E194
:1046800042E00A220092C4F302524FF0000A022ACA
:1046900008D059F804CB032A4FEAEC710AD00DE098
:1046A00029E02AE009F1070121F00702F2E802C13E
:1046B000914609E00FFA8CFC4FEAEC71042A03D111
:1046C0004FFA8CFC4FEAEC71002907DA0A46002108
:1046D000DCF1000C61EB02012D2202E0220504D581
:1046E0002B228DF80420012203E0E20701D02022D2
:1046F000F7E7904659E00A2102E010220DE0102170
:104700004FF0000A00910BE010224FF0000A44F035
:1047100004040827009203E008224FF0000A0092E8
:10472000C4F30252022A05D059F804CB0021032A0F
:1047300008D009E009F1070121F00702F2E802C1FF
:10474000914605E01FFA8CFC042A01D10CF0FF0C05
:104750004FF00008220728D5702806D0009B83F070
:10476000100353EA0A0305D00EE040228DF804201E
:10477000012208E05CEA010206D030228DF8042014
:104780008DF8050002229046009B83F0080353EA4F
:104790000A030AD15CEA010201D1620705D5302281
:1047A0008DF804204FF001087F1E582804D034A053
:1047B00003900EA802900DE036A0F9E7534660463C
:1047C000009AFCF743F884460398825C0298401EE6
:1047D000029002705CEA0100F0D1029806A9081A62
:1047E00000F1200A600702D524F4803400E001279C
:1047F000574502DDA7EB0A0000E0002000EB0A01AC
:10480000009005984144401A0590E00306D45B46A9
:104810002146179A059800F0B3F90544002706E0F1
:1048200001A85A46C05D179990476D1C7F1C4745EB
:10483000F6DBE0030CD55B462146179A059800F09D
:104840009FF9054404E030205A46179990476D1CA3
:104850000099481E00900029F5DC08E002980299B2
:104860005A460078491C0291179990476D1CBAF17D
:104870000001AAF1010AF1DC65E10000092801004C
:1048800030313233343536373839616263646566C6
:104890000000000030313233343536373839414288
:1048A000434445460000000000F058F90544761CDA
:1048B000307800287FF4ECAD19B02846BDE8F08FC1
:1048C000620700D4062709F1070222F0070CFCE872
:1048D0000223E14603F000485FEA080C02D00FF221
:1048E000702C0DE05FEA045C02D50FF2682C07E043
:1048F0005FEAC47C02D00FF2602C01E0AFF2700CD2
:104900004FF0FF3823F00043CDF850C065280CD09D
:1049100006DC452809D046281DD047283DD13DE07A
:10492000662818D067287ED138E00021112F01DBDE
:10493000112000E0781CCDE9000106A90EA8FFF7C0
:10494000EDFCDDE90F010E9A03910021009207F1C1
:10495000010A04914DE04FF000400097CDE90110AD
:1049600006A90EA8FFF7DAFCDDE90F0203920E9B01
:1049700011990022DDF80CA00093049211B9791C62
:1049800000EB010AB7EB0A0004D4C0F1FF3007F1D5
:10499000010A0490AAEB0700019044E0012F00DA1D
:1049A00001270021112F01DD112000E03846CDE95B
:1049B000000106A90EA8FFF7B1FCDDE90F010E9A70
:1049C0000391002104910092BA4621070CD4039967
:1049D000514500DA8A46BAF1010F05DD009AAAF1C5
:1049E0000101515C302908D0B84202DA10F1040FFD
:1049F00006DA0121CDE9011015E0AAF10101E9E78C
:104A0000002805DC049901440491AAEB000102E0AE
:104A1000411C514500DD8A460499401A401C019012
:104A20004FF000400290200704D40198504501DB6C
:104A3000CDF8048000208DF84F0002980DF14F074B
:104A4000B0F1004F25D02B200E9002984FF00208B5
:104A500000280CDA404202902D200E9007E00A2137
:104A60000298FBF7DDFE3031029007F8011DB8F126
:104A70000001A8F10108F2DC02980028EFD1791EAC
:104A80000E980870307800F0200040F0450007F8DC
:104A9000020D12A8C01B00F107081498007800B19D
:104AA000012000EB0A01019801EBE07105984144F7
:104AB000401A401E0590E00306D45B462146179A33
:104AC000059800F05DF805441498007818B15A462E
:104AD000179990476D1CE00324D55B462146179A31
:104AE000059800F04DF805441CE00498002807DB09
:104AF000DDE90301884203DD0098405C179901E07D
:104B0000179930205A469047049805F10105401C3A
:104B100004900198401E019004D12E205A46179906
:104B200090476D1CBAF10001AAF1010ADDDC05E035
:104B300017F8010B5A46179990476D1CB8F1000100
:104B4000A8F10108F4DC5B462146179A0598ABE60C
:104B50002D0000002B000000200000002DE9F04196
:104B6000044600251E461746880404D405E039464D
:104B70002020B0476D1C641EF9D52846BDE8F081A1
:104B80002DE9F041044600251E469046C80301D594
:104B9000302700E02027880404D505E04146384648
:104BA000B0476D1C641EF9D52846BDE8F0810A683F
:104BB000531C0B60107070472DE9FE4F80460F4666
:104BC0000025684601F012F800246FF00F0AE9464C
:104BD000012658F8240057F82410401A00D5404206
:104BE000FBF77AFD5146FBF7CCFB59F8241011F086
:104BF000FF4F0BD0FBF787FB4FF07E51FBF74BFBD2
:104C0000094920F00040884205DC07E007490844D4
:104C10000749884202D306FA04F00543641C032CBA
:104C2000D7DB2846BDE8FE8F295C0F3E666666C16D
:104C30009A99D90010B51148FCF7B6F932210F48FE
:104C4000FCF714F908B10E4810BD0C48FCF750F8F9
:104C5000FBF74BFD6FF00B01FBF793FBFBF784FDBC
:104C60004FF06632074BFBF73FFC0022064BFBF789
:104C70003BFCBDE81040FBF7A3BD00000001002095
:104C8000000080BF66660A40000014402DE9F04D28
:104C90008D4F21F0004A86B005460C46BA452ADB06
:104CA000AAEB070028430AD08848824501DC1AD1C4
:104CB000CDB106B02846BDE8F04DFFF706BB844AEB
:104CC000844B2846FBF710FC07460E46824A834B6E
:104CD00028462146FBF708FC06B03A463346BDE8B5
:104CE000F04DFBF75ABB0120FFF712FB06B0BDE801
:104CF000F04DFFF7EFBA7A48824542DABAF1795FB0
:104D00000BDA2846FFF768FA042808BFFFF7E8FA2D
:104D1000284606B02146BDE8F08D2A460B461046CF
:104D2000FBF7E2FB834602466E480E460B46062121
:104D30007844FFF775FA5A463346FBF7D5FB8046B1
:104D400069488A465A46334604217844FFF768FA90
:104D50005A463346FBF7C8FB00223B46FBF71DFBD8
:104D600002460B4640465146FBF730FC2A46234696
:104D7000FBF7BAFB06B02A462346BDE8F04DFBF729
:104D80000CBB284624F0004100223D463B46FBF781
:104D9000A8FB4FF0FF32FBF788FC0646024653485B
:104DA0000F460B4606217844FFF73AFA32463B4657
:104DB000FBF79AFBCDE900014D4832463B46042102
:104DC0007844FFF72DFA32463B46FBF78DFB002275
:104DD0002B46FBF7E2FA834602913046394602F051
:104DE000E9FB804643480D46504517DCDDE90001EC
:104DF0005A46029BFBF7EAFB42462B46FBF774FB45
:104E000042462B46FBF7C9FA0122FBF74EFC304A1B
:104E1000304BFBF763FB304A304B4CE04FF0000A5D
:104E200052460B464046FBF7B8FACDE9031052460E
:104E30002B4610461946FBF757FB32463B46FBF71D
:104E400050FBDDE90332FBF7C1FB06460F46DDE907
:104E500000015A46029BFBF7B9FB834600910122F1
:104E600030463946FBF721FC194A1A4BFBF739FB50
:104E700006460F46012240462946FBF716FC5A46D5
:104E8000009BFBF731FB32463B46FBF727FB064610
:104E90000F46012250462946FBF707FC0E4DDFF86E
:104EA00058802A464346FBF71CFB32463B46FBF73D
:104EB00018FB2A464346FBF714FB002CD8BF81F0B1
:104EC000004106B0BDE8F08D0000F03F0000F07F2B
:104ED000075C143326A6913C182D4454FB21F93F5E
:104EE0000000E03F743E00008A3E0000FE3D0000EE
:104EF000143E00003333EF3FFB21E93F2DE9F84F2B
:104F000004460D4621F0004000917349814211DCB6
:104F10007249884201DC06D12CB120462946BDE801
:104F2000F84FFFF7D2B96E48002DCCBF6D496E49DE
:104F3000BDE8F88F6D49814211DD6D498142D8BFCE
:104F40004FF0FF366DDD20462946FFF745F904286E
:104F500008BFFFF7C5F920462946BDE8F88F654927
:104F6000654F25F00045814233DD6449814219DDFA
:104F7000002632464FF0804320462946FBF70DFAC3
:104F800080468A46012220462946FBF78EFB0022F6
:104F90003B46FBF7A3FA42465346FBF717FB044692
:104FA0000D463EE001260022BA463B4620462946F1
:104FB000FBF7F3F980460F46002253462046294668
:104FC000FBF78CFA42463B46FBF700FB04460D46D6
:104FD00027E04B4981421BDDDFF828A10226002291
:104FE000534620462946FBF77FFA00223B46FBF753
:104FF000D4F980460F460022534620462946FBF747
:105000006DFA42463B46FBF7E1FA04460D4608E0DE
:10501000032622462B4600203B49FBF7D7FA0446DD
:105020000D4622462B4610461946FBF75DFA8B4685
:10503000824602460B46FBF757FA074602463348BC
:1050400088460B4606217844FFF7EAF852465B464D
:10505000FBF74AFA82462E488B463A4643460521DC
:105060007844FFF7DDF83A464346FBF73DFA02463F
:105070000B46002E504659460CDAFBF78EF92246B5
:105080002B46FBF731FA01B022462B46BDE8F04F24
:10509000FBF727BAFBF781F922462B46FBF724FAE8
:1050A0001C4A7A4402EBC603D3E90023FBF716FA45
:1050B00022462B46FBF712FA174A7A4402EBC60344
:1050C000D3E90023FBF70DFA009A002AB8BF81F05C
:1050D0000041BDE8F88F0000000010440000F07FA0
:1050E000182D4454FB21F93FFB21F9BF0000DC3FA0
:1050F0000000203E0000F33F0000F03F0000E63FCC
:10510000008003400000F83F0000F0BF163C0000A4
:10511000D43B0000723B00003A3B00002DE9F04D0B
:105120009446CCF1000423F000464CEA0404524FAC
:1051300046EAD4749A46884621F00042BC4206D81A
:10514000454240EA050442EAD474BC4204D9BDE8B1
:10515000F04D6246FFF7BCB8AAF14055A5F17F6556
:1051600055EA0C040BD0022404EAAA74434DDFF87C
:1051700010E144EAD87452EA000B04D00CE0BDE818
:10518000F04DFFF7BBBE002C14BF012CBDE8F08D25
:10519000022C30D0032C32D056EA0C0B0AD0BE427F
:1051A00020D1BA4209D126F0804622F0804233460F
:1051B000114617E000291ADB25E0DFF8C8B0FB44F0
:1051C000002C04BFDBE90001BDE8F08D012C02BF1B
:1051D000DBE9000181F00041BDE8F08D022C0AD02E
:1051E000032C0CD0BA4212D1B8F1000F0BDA2348CD
:1051F0002549BDE8F08D28462449BDE8F08D2846B4
:105200007146BDE8F08D1D482149BDE8F08D921B27
:1052100012153C2AC4BF19481D490EDCBAF1000F13
:10522000BEBF12F13C0F0020014606DB6246FBF7D1
:10523000CDF921F00041FFF761FE002C08BFBDE869
:10524000F08D012C04BF81F00041BDE8F08D114AC2
:10525000114B022C07D0FBF741F92A46BDE8F04D6F
:105260000A4BFBF73BB9FBF739F92A46BDE8F04D8D
:10527000064BFBF736B900000000F07F182D4454B0
:10528000FB2109C0CE3A0000FB21F9BFFB210940F8
:10529000FB21F93F075C143326A6A13C08B560B199
:1052A00020208DF8000028208DF8010030208DF896
:1052B000020038208DF8030004E0A3220421684690
:1052C000FAF771FF6A46042140F69E2002F0CCF8FE
:1052D00001F090FD08BD00003EB5044602208DF8A7
:1052E0000000CA208DF80100E3208DF8020009209B
:1052F0008DF803006A460421682002F0B5F8A32067
:105300008DF80000610609D5C0218DF80110C82173
:105310008DF80210C2218DF8031005E08DF8010010
:105320008DF802008DF8030014F4C07F09D0C42169
:105330008DF80410CC218DF80510C6218DF80610CB
:1053400005E08DF804008DF805008DF806008DF855
:1053500008008DF807008DF809006A460A2140F61A
:10536000A72002F081F8A0074FF0D80503D0202035
:105370008DF8000001E08DF800506A46012140F6EA
:10538000B62002F071F8A00601D5012000E000204F
:1053900000F090F814F4C07F1ED0E0050AD5B220CA
:1053A0008DF800008B208DF80100B6208DF80200EA
:1053B0009B2009E0B0208DF8000080208DF80100CE
:1053C000B4208DF8020090208DF803006A46042175
:1053D00040F6A22002F048F8E0074FF40B6323D018
:1053E000F8208DF800006A460121184602F03CF8CA
:1053F000FA21072000F03AFB072000F005FB01200E
:1054000000F022FB642000F0C5FB4FF4FA7000F0BE
:10541000D1FBC821254800F0BFFA282000F0D4FABB
:105420000A2000F0E1FA06E08DF800506A460121FA
:10543000184602F019F8A00703D5D9208DF800000E
:1054400001E08DF800506A46012140F23D7002F003
:105450000BF8600701D5012000E0002000F046F8BD
:10546000E00601D5012000E00020FFF717FF104DF6
:1054700044F00800688101F0BDFC0020A8736006BC
:1054800001D50620A87314F4C07F02D0A87B801D2C
:10549000A87314F0140F02D0A87B1030A873A007D3
:1054A00002D0A87B001DA87300203EBD09E3CA02FC
:1054B000740300200EB54FF4976308B105A000E017
:1054C00007A007C88DE807006A460921184601F0C1
:1054D000CBFF0EBDB8AAB38DB4980D355D000000AA
:1054E000B8AAAAAAB088C3C5C700000008B560B1B1
:1054F000C0208DF80000C2208DF80100C4208DF876
:105500000200C6208DF8030004E08B2204216846C7
:10551000FAF749FE6A46042140F6982001F0A4FFFC
:1055200001F068FC08BD0000C8234FF48062024906
:1055300040F6F63001F03EBB5C7F00082DE9FF4FDE
:1055400089B01646DDE916520024DFF834810F4693
:1055500081462C80A24698F80E00694601F0D8FBDF
:105560004FF0FF3B18B158460DB0BDE8F08FB8F8CA
:105570000A0010F0140F3CD0009909BA21F0FF0C7A
:105580009DF803104CEA010CC6F800C0019909BA55
:1055900021F0FF039DF807100B43736002999DF8FB
:1055A0000B2009BA21F0FF011143B160039A9DF865
:1055B0000F4012BA22F0FF022243F2604FEA2C465B
:1055C00009141B1412147643494303FB036302FBC3
:1055D000021119441024A1F17061B1F1007F04D9C6
:1055E00001F008FCA5F800A0BDE7298841F480710E
:1055F000298041066A460ED51119A41D0B885BBA95
:105600003B804B885BBA7B80898849BAB9802988FE
:1056100041F00801298010F4C07F11D01119A41D98
:105620000B885BBAA9F800304B885BBAA9F8023046
:10563000898849BAA9F80410298841F070012980A5
:10564000800718D01444E07800F0C00500F03F0156
:105650006078C00707D0C80801F00701D8F800201B
:10566000491C02B190476078000704D5D8F80410AF
:1056700009B1A80988470C9800F096FF002073E74D
:10568000740300202DE9FF41044603A801F048F906
:10569000BDF80C00420CC3032F48018901F0030040
:1056A0004D0754F8200000D54042C1F3C1058E06D5
:1056B00054F8255000D56D42C1F38116C90554F840
:1056C000264000D56442A0FB0367C11701FB0371AC
:1056D00000FB0210810041EA9670A5FB0367E91701
:1056E00001FB037105FB02118D0045EA9671A4FBD5
:1056F0000367E51705FB037304FB0232930043EADB
:105700009672030E8DF80030030C8DF80130030AF9
:105710008DF802308DF80300080E8DF80400080C97
:105720008DF80500080A8DF80600100E8DF80800A7
:10573000100C8DF80900100A8DF80A008DF807107A
:105740008DF80B206A460C214FF4257001F08CFE79
:1057500004B0BDE8F08100007403002030B50446B9
:1057600013A185B007C98DE807004FF0FF35C82C9D
:1057700016D8C820B0FBF4F1491E080A8DF80C00B9
:105780008DF80D1003AA022140F2162001F06CFEE4
:1057900030B96A460C2140F6C12001F065FE10B117
:1057A000284605B030BD054884810020F9E7000097
:1057B000FEF2ABC4AAF1DFDFBBAFDFDF7403002072
:1057C000F8B53049098901F0030250F822404A0730
:1057D00000D56442C1F3C10250F822308A0600D5D8
:1057E0005B42C1F3811250F82220C80500D5524215
:1057F000254984FB0140850045EA947083FB014301
:1058000082FB0121950F45EA8105010E8DF80010FC
:10581000010C8DF80110010A8DF80210A40F8DF80B
:10582000030044EA83046A4604214FF4747001F0D3
:105830001BFE4FF0FF3688B9200E8DF80000200CBB
:105840008DF80100200A8DF802008DF803406A46A9
:1058500004214FF4757001F007FE08B13046F8BD21
:10586000280E8DF80000280C8DF80100280A8DF80C
:1058700002008DF803506A4604214FF4767001F05F
:10588000F3FDF8BD7403002009E3CA022DE9FF41CE
:1058900004463CA002AB006802903BA00068039065
:1058A0003AA006683AA0056804F00300195C8DF878
:1058B0000010C4F3C1015A5C8DF80120C4F38112B9
:1058C0009B5C8DF8023003AB185C8DF80400585CCB
:1058D0008DF80500985C8DF806006A46032140F2B9
:1058E000264001F0C1FD4FF0FF37E0BB01AA0321C4
:1058F00040F22A4001F0B8FDA8BBCDE90065600781
:105900000BD59DF8000040F001008DF800009DF8D7
:10591000040040F001008DF80400A0060BD59DF8AE
:10592000010040F001008DF801009DF8050040F0F5
:1059300001008DF80500E0050BD59DF8020040F050
:1059400001008DF802009DF8060040F001008DF87E
:1059500006006A4603214FF4886001F085FD10B906
:1059600001AA032100E004E040F2314001F07CFD97
:1059700018B1384604B0BDE8F08106480481002023
:10598000F8E700004CCD6C000CC92C0036567600B0
:1059900026466600740300204FF47A7290FBF2F002
:1059A00008B54843010E8DF80010010C8DF8011068
:1059B000010A8DF802108DF803006A4604214FF4A5
:1059C000AE7001F051FD08BD0521B0FBF1F008B546
:1059D000010A8DF800108DF801006A4602214FF48B
:1059E000AD7001F041FD08BD0521B0FBF1F008B537
:1059F000010A8DF800108DF801006A4602214FF46B
:105A0000AC7001F031FD08BD08B500218DF8001023
:105A1000C10702D030218DF80010810705D59DF80F
:105A2000001041F00C018DF80010400705D59DF8DD
:105A3000000040F003008DF800006A4601214FF499
:105A4000A47001F011FD08BD08B560B1042800D9AB
:105A50000420401E8DF800006A46012140F24F10DC
:105A600001F002FD08BD0120F3E700002DE9FC4133
:105A7000054640074FF0FF367CD0B1F5C86F79D8A6
:105A80000846FAF732FE3E49FAF73DFC074601A800
:105A900000F028FF9DF80400022806D004280DD04D
:105AA00008282ED0102865D134E00E213846FAF7A8
:105AB00068FCFAF745FE84B2324907E00D2138460A
:105AC000FAF75FFCFAF73CFE2F4984B23846FAF742
:105AD000E8FBFAF735FE210A8DF8001080B28DF848
